:100000000C94D6000C94F3000C94F3000C94F300C1
:100010000C94F3000C94F3000C94F3000C94F30094
:100020000C94F3000C9406030C94F3000C94F3006E
:100030000C94F3000C94F3000C94F3000C94F30074
:100040000C94FC020C94F3000C9414040C947B04A8
:100050000C94F3000C94F3000C94F3000C94F30054
:100060000C94F3000C94F300487A0072706D006EEB
:10007000616E00696E660000407A10F35A00A0724B
:100080004E18090010A5D4E80000E87648170000D3
:10009000E40B54020000CA9A3B000000E1F50500A1
:1000A0000080969800000040420F000000A08601EA
:1000B000000000102700000000E8030000000064BA
:1000C00000000000000A0000000000010000000025
:1000D000002C76D888DC674F0823DFC1DFAE59E1FA
:1000E000B1B796E5E3E453C63AE651997696E8E669
:1000F000C28426EB898C9B62ED407C6FFCEFBC9C3C
:100100009F40F2BAA56FA5F490055A2AF75C936B4D
:100110006CF9676DC11BFCE0E40D47FEF520E6B508
:1001200000D0ED902E0300943577050080841E08E2
:100130000000204E0A000000C80C333333330F9800
:100140006E12831141EF8D2114893BE65516CFFEC7
:10015000E6DB18D1844B381BF77C1D901DA4BBE453
:1001600024203284725E228100C9F124ECA1E53D95
:10017000274E414E494E495459494E46CDCCCC3D6F
:100180000AD7233C17B7D13877CC2B329595E62484
:100190001FB14F0A000020410000C84200401C4629
:1001A00020BCBE4CCA1B0E5AAEC59D7411241FBE86
:1001B000CFEFD8E0DEBFCDBF11E0A0E0B1E0EEE2CE
:1001C000FFE102C005900D92A231B107D9F711E00D
:1001D000A2E1B1E001C01D92A43CB107E1F70E9489
:1001E0000C050C94950F0C9400002B9808952B9AF5
:1001F0000895CF93DF93C82FD62F662311F02C9A42
:1002000001C02C98C7FF02C05F9A01C05F98C6FF6B
:1002100002C0289A01C02898C5FF02C0299A01C0CF
:100220002998C4FF02C02D9A01C02D9800C00E94D9
:10023000F70082E08A95F1F700C00E94F500C3FF45
:1002400002C05F9A01C05F98C2FF02C0289A01C035
:100250002898C1FF02C0299A01C02998C0FF02C096
:100260002D9A01C02D9800C00E94F70092E09A9547
:10027000F1F700C00E94F5005F9A289A299A2D9AFA
:10028000D11108C0C43030F48FE999E10197F1F73A
:1002900000C003C095ED9A95F1F70000DF91CF9172
:1002A000089560E00C94F90080580C94510162307C
:1002B00031F0633031F0613029F4805C03C08C5E32
:1002C00001C08C5A80680C94510181E00C9451015A
:1002D00082E00C94510161E00C94F900CF93DF931C
:1002E000EC018991882319F00E946B01FACFDF910C
:1002F000CF910895CF93DF93FC018491EF01219674
:10030000882321F00E946B01FE01F7CFDF91CF918E
:100310000895239A249A579A209A219A259A0E94FE
:10032000F5002C985F9A289A299A2D9A8FE59AEED3
:100330000197F1F700C000005F98289800C00E9464
:10034000F70092E09A95F1F700C00E94F5008FE067
:1003500090E40197F1F700C000000E94F70092E0DE
:100360009A95F1F700C00E94F5008FE891E001979F
:10037000F1F700C000000E94F70092E09A95F1F7B3
:1003800000C00E94F50085ED8A95F1F700002D98D8
:1003900000C00E94F70092E09A95F1F700C00E9419
:1003A000F50085ED8A95F1F700002D9800C00E94B8
:1003B000F70092E09A95F1F700C00E94F50082E004
:1003C0008A95F1F700C05F9A00C00E94F70092E0A2
:1003D0009A95F1F700C00E94F50085ED8A95F1F736
:1003E000000088E00E9451010E94650186E00E94A1
:1003F00051018CE00C9451014F925F926F927F9269
:100400008F929F92AF92BF92CF92DF92EF92FF9224
:100410000F931F93CF93DF93CDB7DEB728970FB617
:10042000F894DEBF0FBECDBF4B015C0129833A8338
:100430004B835C8327013801A80197010E94A50B1B
:10044000209144013091450140914601509147016E
:100450000E94F7096B017C01609344017093450190
:1004600080934601909347012FE632E143E05AE33F
:10047000C501B4010E94A50B6D837E838F8398878D
:1004800020E030E0A901C701B6010E94A50B9B0145
:10049000AC016D817E818F8198850E94F7096B0187
:1004A0007C0129813A814B815C81C501B4010E94A4
:1004B000F609A30192010E945F0A20E030E0A90141
:1004C0000E94A50B9B01AC01C701B6010E94F70970
:1004D00028960FB6F894DEBF0FBECDBFDF91CF9147
:1004E0001F910F91FF90EF90DF90CF90BF90AF9052
:1004F0009F908F907F906F905F904F900895549849
:100500005C9A85B5876085BDEEE6F0E0808181600C
:1005100080830895229AE0E8F0E0808182628083FF
:10052000E1E8F0E080818A61808380E29EE490933C
:100530008700809386000895E1EBF0E0808182607F
:100540008083E0E7F0E0808181608083089520E08F
:1005500030E0281739074CF4EFE9FFE03197F1F765
:1005600000C000002F5F3F4FF4CF0895EF92FF923D
:100570000F931F93CF93DF9316BC08EE13E084E331
:10058000E82E88E0F82E86B5813248F510938B006E
:1005900000938A0088EE93E00E94A702CCEDD5E09C
:1005A000D0938B00C0938A0088E592E00E94A70256
:1005B000CC59DF4FC83988E0D80791F7D0938B002A
:1005C000C0938A0088E592E00E94A702F0928B0017
:1005D000E0928A0088E592E00E94A702D4CFDF91E2
:1005E000CF911F910F91FF90EF9008950E947F028D
:1005F0000E948A020C949C021F920F920FB60F92D7
:1006000011240F900FBE0F901F9018951F920F92FC
:100610000FB60F9211242F933F934F935F936F93D5
:100620007F938F939F93AF93BF93EF93FF9320E0BC
:1006300030E040E85FE360914001709141018091BA
:100640004201909143010E94F70960934001709329
:100650004101809342019093430117BAFF91EF91BA
:10066000BF91AF919F918F917F916F915F914F91CA
:100670003F912F910F900FBE0F901F9018950895E6
:10068000EF92FF920F931F93CF93DF93CDB7DEB717
:100690002A970FB6F894DEBF0FBECDBF9F938F93FE
:1006A0007F936F9388E091E09F938F931F9287E0F1
:1006B0008F938E010F5F1F4F1F930F930E94630D47
:1006C00078010FB6F894DEBF0FBECDBFF8010190E0
:1006D0000020E9F73197E01BF10BC701801B910B5C
:1006E0008E179F0730F4F70181917F010E94DC048F
:1006F000EDCF2A960FB6F894DEBF0FBECDBFDF91C7
:10070000CF911F910F91FF90EF900895AF92BF92FC
:10071000CF92DF92EF92FF920F931F93CF93DF93CD
:10072000CDB7DEB72A970FB6F894DEBF0FBECDBFA8
:10073000D22EC32EB42EA52E9F938F937F936F93AB
:100740008DE091E09F938F931F9287E08F938E01AE
:100750000F5F1F4F1F930F930E94630D0FB6F89406
:10076000DEBF0FBECDBF7801F80101900020E9F790
:100770003197E01BF10BC701801B910B8E179F0770
:1007800030F4F70181917F010E94DC04EDCF80E21B
:100790000E94DC048BE690E00E94FD0489E00E9448
:1007A000DC04AF92BF92CF92DF928DE091E09F93F5
:1007B0008F931F9287E08F931F930F930E94630D77
:1007C0000FB6F894DEBF0FBECDBF7801F8010190DF
:1007D0000020E9F73197E01BF10BC701801B910B5B
:1007E0008E179F0730F4F70181917F010E94DC048E
:1007F000EDCF80E20E94DC0488E690E00E94FD04D8
:100800008AE00E94DC042A960FB6F894DEBF0FBE81
:10081000CDBFDF91CF911F910F91FF90EF90DF90AF
:10082000CF90BF90AF9008951F920F920FB60F9286
:1008300011242F933F934F935F936F937F938F93E5
:100840009F93AF93BF93CF93EF93FF93C091C0005B
:100850002091C600E0914A01EF5FEF71809149015C
:10086000E81741F0CC71E0934A01F0E0E35BFE4F02
:10087000208301C0C2E02A3081F0203328F180912A
:10088000140190911501FC01E956FE4F2083019659
:10089000909315018093140117C087E991E00E949D
:1008A0003F0C6093000170930101809302019093CB
:1008B0000301E7E9F1E0119281E0E13AF807D9F7A5
:1008C0001092150110921401809148018C2B809395
:1008D0004801FF91EF91CF91BF91AF919F918F917F
:1008E0007F916F915F914F913F912F910F900FBE2C
:1008F0000F901F9018951F920F920FB60F92112410
:100900008F939F93EF93FF9390914C0180914B01B4
:10091000981769F0E0914B01EF5FEF71E0934B01A5
:10092000F0E0E359FE4F80818093C60005C08091BE
:10093000C1008F7D8093C100FF91EF919F918F91B6
:100940000F900FBE0F901F90189510924C011092AF
:100950004B0110924A011092490197FF03C022E017
:100960002093C00090789093C5008093C40088E9DC
:100970008093C10086E08093C200089590914A015F
:10098000809149019817A9F0909149019F5F9F714B
:10099000E92FF0E0E35BFE4F2081809148019093C6
:1009A00049011092480190E0982F8827820F911DED
:1009B000089580E091E0089590914C019F5F9F71B0
:1009C00020914B019217E1F3E92FF0E0E359FE4F3C
:1009D000808390934C018091C10080628093C1001C
:1009E0000895CF93DF93EC018991882319F00E9439
:1009F000DC04FACFDF91CF910895CF93DF93FC0110
:100A00008491EF012196882321F00E94DC04FE01ED
:100A1000F7CFDF91CF910895CF93DF9300D000D02F
:100A2000CDB7DEB7F8940E94F6020E9489010E94B9
:100A3000B60287E690E00E94A504789481E0809356
:100A40003C0110923401109235011092360110923F
:100A50003701109238011092390110923A01109228
:100A60003B0116BC109240011092410110924201CC
:100A7000109243011092B20086B58930E8F360917C
:100A8000B20070E080E090E00E94F30A60931801E9
:100A90007093190180931A0190931B01809140017A
:100AA00090914101A0914201B091430180932401B2
:100AB00090932501A0932601B093270120E030E018
:100AC00040E251E46091340170913501809136012A
:100AD000909137010E945B0A87FF43C01091B200DA
:100AE00020E030E040E853E4609140017091410122
:100AF00080914201909143010E94A50B6B017C0102
:100B0000612F70E080E090E00E94F30A9B01AC014D
:100B1000C701B6010E94F7092FE632E143E05AE32C
:100B20000E94A50B20E030E040E05FE30E94A50BAF
:100B30002DE53EEF43E75FE30E94A50B2EEB30E38C
:100B400049E95CE30E94F709609334017093350131
:100B5000809336019093370185E08A95F1F7000084
:100B6000ADCF20E030E040E853E460912401709183
:100B7000250180912601909127010E94A50B2091CB
:100B800018013091190140911A0150911B010E94E6
:100B9000F7092FE632E143E05AE30E94A50B20E07B
:100BA00030E040E05FE30E94A50B2DE53EEF43E718
:100BB0005FE30E94A50B2EEB30E349E95CE30E9462
:100BC000F7099B01AC016093380170933901809360
:100BD0003A0190933B0160E070E68AE697E40E9458
:100BE0005F0A6B017C01609304017093050180939F
:100BF00006019093070120E030E040E752E40E94B4
:100C00005F0A20E030E040E850E40E94A50B6093CA
:100C10001C0170931D0180931E0190931F01C70159
:100C2000B6010E94400389E00E94DC04609130011B
:100C30007091310180913201909133010E94400303
:100C40008AE00E94DC04209104013091050140916A
:100C5000060150910701609100017091010180919E
:100C60000201909103010E94F60960933001709394
:100C700031018093320190933301C0908A00D0906B
:100C80008B00E0903401F090350100913601109115
:100C9000370120912C0130912D0140912E0150916E
:100CA0002F010E94FC019B01AC01B60180E090E0A5
:100CB00029833A834B835C830E94F30A29813A811A
:100CC0004B815C810E94F7090E94C70A70938B00D8
:100CD00060938A008091300190913101A09132019E
:100CE000B091330180932C0190932D01A0932E019C
:100CF000B0932F01A6CEA3E1B0E0E1E8F6E00C94BA
:100D0000080C7C011B016A01FC0117821682838199
:100D100081FF66C3BE016F5F7F4F4B01F701938177
:100D2000F10193FD859193FF81911F01882309F4BF
:100D300053C3853239F493FD859193FF81911F014F
:100D4000853239F4B70190E00E94310D56016501FA
:100D5000E5CF10E0512C20E02032A0F48B3269F076
:100D600030F4803259F0833269F420612CC08D3226
:100D700039F0803339F4216026C02260246023C01A
:100D8000286021C027FD27C030ED380F3A3078F4B5
:100D900026FF06C0FAE01F9F300D1124132F13C049
:100DA0006AE0569E300D1124532E20620CC08E3204
:100DB00021F426FD11C3206406C08C3611F420688E
:100DC00002C0883641F4F10193FD859193FF819132
:100DD0001F018111C1CF9BEB980F933018F4206154
:100DE000805E06C09BE9980F933008F0AAC12F7E61
:100DF00026FF16E02F73722E853621F4F22FF06451
:100E00007F2E08C0863621F4622F6068762E02C0DD
:100E10001111115077FE07C01C3348F44424439449
:100E2000410E27E00BC0183030F4212F06C027E018
:100E30004CE3442E03C027E017E0412C560174E038
:100E4000A70EB11CF6016081718182819381042D0E
:100E5000A4010E94430C6C01098100FF02C003FF42
:100E600006C071FC07C072FC08C0612C08C03DE2DE
:100E7000632E05C02BE2622E02C090E2692E802F05
:100E80008C7099F1662011F084E001C083E0851533
:100E900010F0512C0BC0581A73FC08C0B70180E247
:100EA00090E00E94310D5A94C9F7F3CF662029F0E3
:100EB000B701862D90E00E94310D03FD03C003E7CA
:100EC00010E002C00FE610E0F72DF0717F2EF80160
:100ED0008491882309F476C271108052B70190E0A2
:100EE0000E94310D0F5F1F4FF2CF77FE0FC04C0CE9
:100EF00004FF04C08A81813309F44A94141474F500
:100F0000F8E0F41578F588E0482E2CC076FC2AC06D
:100F1000812F90E08C159D059CF06CEFC6166FEF4D
:100F2000D60674F0772D7068772E0AC0E2E0F0E004
:100F3000EC0FFD1FE10FF11D8081803319F411507A
:100F40001111F4CF77FE0EC044244394410E812F3B
:100F500090E0C816D9062CF41C1904C0442443940C
:100F600001C010E077FE07C01C141D043CF496017C
:100F70002F5F3F4F05C025E030E002C021E030E0A8
:100F8000662011F02F5F3F4F112331F0412F50E0C9
:100F90004F5F5F4F240F351F452D50E02417350755
:100FA00014F4521A01C0512C872D897049F4552030
:100FB00039F0B70180E290E00E94310D5A94F7CFEA
:100FC000662029F0B701862D90E00E94310D73FC58
:100FD00009C0552039F0B70180E390E00E94310D3F
:100FE0005A94F7CF77FE5FC09C2D8D2DD7FE02C09F
:100FF00090E080E0692E782E40E050E0C601841930
:1010000091099D878C87960126193709280D391D6E
:10101000812F90E0EE27FF27E81BF90BFF87EE8773
:10102000FFEF6F167F0669F4B7018EE290E02B8B1D
:101030003A8B488B598B0E94310D598948893A89DE
:101040002B89C614D70454F06C857D856615770509
:101050002CF4F901E40FF51F818101C080E371E0F8
:10106000671A71084F5F5F4FEE85FF856E167F062A
:101070006CF0B70190E02B8B3A8B488B598B0E9418
:10108000310D2B893A8948895989CACF6C147D045E
:1010900039F49A81963318F4953311F404FF81E3FF
:1010A000B70190E04BC08A81813309F00F7EB70110
:1010B00090E00E94310D111105C074FE18C085E446
:1010C00090E017C0B7018EE290E00E94310D82E0FF
:1010D00066246394680EF401E80FF11D8081B70166
:1010E00090E00E94310D115041F3862DF1CF85E63D
:1010F00090E0B7010E94310DD7FC05C0C114D104A6
:1011000039F404FF05C0D194C194D1088DE201C027
:101110008BE2B70190E00E94310D80E36AE0C616D1
:10112000D1042CF08F5FFAE0CF1AD108F7CFB701C6
:1011300090E00E94310DB701C601C0960E94310DAA
:1011400041C1833631F0833779F0833509F058C0D7
:1011500021C0560172E0A70EB11CF601808189837F
:1011600001E010E0640114C05601F2E0AF0EB11CC2
:10117000F601C080D18026FF03C0612F70E002C05D
:101180006FEF7FEFC6012B8B0E94260D8C012B8900
:101190002F7715C05601F2E0AF0EB11CF601C080EA
:1011A000D18026FF03C0612F70E002C06FEF7FEF98
:1011B000C6012B8B0E941B0D8C012B892068722E7F
:1011C00023FD1AC0852D90E008171907A8F4B70170
:1011D00080E290E00E94310D5A94F4CFF60177FC42
:1011E000859177FE81916F01B70190E00E94310DEA
:1011F00051105A94015011090115110579F7E2C0F7
:10120000843611F0893651F5560127FF09C0F4E004
:10121000AF0EB11CF60160817181828193810AC099
:10122000F2E0AF0EB11CF60160817181882777FD75
:101230008095982F022F0F7697FF08C09095809584
:10124000709561957F4F8F4F9F4F00682AE030E087
:10125000A4010E94930DC82EC8183EC0022F8537E6
:1012600021F40F7E2AE030E01DC0097F8F3691F017
:1012700018F4883559F0B0C0803719F0883711F06C
:10128000ABC0006104FF09C0046007C024FF08C0B0
:10129000066006C028E030E005C020E130E002C072
:1012A00020E132E0560107FF09C0F4E0AF0EB11CA7
:1012B000F601608171818281938108C0F2E0AF0EF6
:1012C000B11CF6016081718180E090E0A4010E9470
:1012D000930DC82EC8180F7706FF0BC0202F2E7F46
:1012E000C11650F404FF0AC002FD08C0202F2E7E54
:1012F00005C0DC2C202F03C0DC2C01C0D12E24FF24
:101300000DC0FE01EC0DF11D8081803311F4297EAA
:1013100009C022FF06C0D394D39404C0822F8678DC
:1013200009F0D39423FD13C020FF06C01C2DD51453
:1013300018F4150D1D19D52CD51468F4B70180E2E9
:1013400090E02B8B0E94310DD3942B89F5CFD514CF
:1013500010F45D1801C0512C24FF12C0B70180E3C6
:1013600090E02B8B0E94310D2B8922FF17C021FFAB
:1013700003C088E590E002C088E790E0B7010CC0A8
:10138000822F867859F021FD02C080E201C08BE2F5
:1013900027FD8DE2B70190E00E94310DC11638F4AF
:1013A000B70180E390E00E94310D1150F7CFCA944D
:1013B000F401EC0DF11D8081B70190E00E94310D28
:1013C000C110F5CF552009F4C2CCB70180E290E0FE
:1013D0000E94310D5A94F6CFF7018681978102C0A1
:1013E0008FEF9FEF6396E2E10C94240C5058BB27DB
:1013F000AA270ED070C161D130F066D120F031F44F
:101400009F3F11F41EF456C10EF4E095E7FB4CC16A
:10141000E92F72D180F3BA17620773078407950723
:1014200018F071F49EF58AC10EF4E0950B2EBA2FD8
:10143000A02D0B01B90190010C01CA01A0011124DA
:10144000FF27591B99F0593F50F4503E68F11A1686
:10145000F040A22F232F342F4427585FF3CF469517
:1014600037952795A795F0405395C9F77EF41F1639
:10147000BA0B620B730B840BBAF09150A1F0FF0F03
:10148000BB1F661F771F881FC2F70EC0BA0F621FEF
:10149000731F841F48F4879577956795B795F795DF
:1014A0009E3F08F0B3CF9395880F08F09927EE0F71
:1014B000979587950895D4D008F481E008950CD0CD
:1014C0000AC102D140F0F9D030F021F45F3F19F0A9
:1014D000EBC0511134C1EEC00FD198F39923C9F379
:1014E0005523B1F3951B550BBB27AA27621773072A
:1014F000840738F09F5F5F4F220F331F441FAA1FDE
:10150000A9F333D00E2E3AF0E0E830D0915050409D
:10151000E695001CCAF729D0FE2F27D0660F771F4B
:10152000881FBB1F261737074807AB07B0E809F02D
:10153000BB0B802DBF01FF2793585F4F2AF09E3FC2
:10154000510568F0B1C0FBC05F3FECF3983EDCF39F
:10155000869577956795B795F7959F5FC9F7880F3B
:10156000911D9695879597F90895E1E0660F771F8D
:10157000881FBB1F621773078407BA0720F0621B1E
:10158000730B840BBA0BEE1F88F7E0950895BCD05F
:1015900088F09F5790F0B92F9927B751A0F0D1F05C
:1015A000660F771F881F991F1AF0BA95C9F712C0E6
:1015B000B13081F0C3D0B1E00895C0C0672F782F5B
:1015C0008827B85F39F0B93FCCF386957795679552
:1015D000B395D9F73EF490958095709561957F4FBE
:1015E0008F4F9F4F0895E89409C097FB3EF4909564
:1015F0008095709561957F4F8F4F9F4F9923A9F0EC
:10160000F92F96E9BB279395F6958795779567957A
:10161000B795F111F8CFFAF4BB0F11F460FF1BC0BE
:101620006F5F7F4F8F4F9F4F16C0882311F096E951
:1016300011C0772321F09EE8872F762F05C06623FF
:1016400071F096E8862F70E060E02AF09A95660FB8
:10165000771F881FDAF7880F9695879597F9089571
:10166000990F0008550FAA0BE0E8FEEF16161706B3
:10167000E807F907C0F012161306E407F50798F01B
:10168000621B730B840B950B39F40A2661F0232B34
:10169000242B252B21F408950A2609F4A140A695B0
:1016A0008FEF811D811D089597F99F6780E870E095
:1016B00060E008959FEF80EC089500240A941616C8
:1016C000170618060906089500240A941216130630
:1016D000140605060895092E0394000C11F48823BE
:1016E00052F0BB0F40F4BF2B11F460FF04C06F5FDA
:1016F0007F4F8F4F9F4F089557FD9058440F551FB0
:1017000059F05F3F71F04795880F97FB991F61F083
:101710009F3F79F087950895121613061406551FFA
:10172000F2CF4695F1DF08C0161617061806991F66
:10173000F1CF86957105610508940895E894BB275B
:1017400066277727CB0197F908950BD0C4CFB5DF73
:1017500028F0BADF18F0952309F0A6CFABCF1124FB
:10176000EECFCADFA0F3959FD1F3950F50E0551F40
:10177000629FF001729FBB27F00DB11D639FAA27E6
:10178000F00DB11DAA1F649F6627B00DA11D661F35
:10179000829F2227B00DA11D621F739FB00DA11D56
:1017A000621F839FA00D611D221F749F3327A00D10
:1017B000611D231F849F600D211D822F762F6A2FAC
:1017C00011249F5750408AF0E1F088234AF0EE0F31
:1017D000FF1FBB1F661F771F881F91505040A9F73E
:1017E0009E3F510570F060CFAACF5F3FECF3983E6B
:1017F000DCF3869577956795B795F795E7959F5FA5
:10180000C1F7FE2B880F911D9695879597F908953E
:101810002F923F924F925F926F927F928F929F9200
:10182000AF92BF92CF92DF92EF92FF920F931F93EE
:10183000CF93DF93CDB7DEB7CA1BDB0B0FB6F8949F
:10184000DEBF0FBECDBF09942A88398848885F84DF
:101850006E847D848C849B84AA84B984C884DF8050
:10186000EE80FD800C811B81AA81B981CE0FD11D34
:101870000FB6F894DEBF0FBECDBFED010895662709
:1018800077270C94F10D283008F027E03327DA0190
:10189000990F311D87FD916000966105710539F43E
:1018A00032602E5F3D9330E32A95E1F708959F3F24
:1018B00030F080387105610509F03C5F3C5F3D9375
:1018C000913008F08068911DDF93CF931F930F93A1
:1018D000FF92EF92192F987F9695E92F96959695FE
:1018E000E90FFF27EF52FF4F99273327EE24FF24FC
:1018F000A701E70105900894079428F4360FE71E26
:10190000F81E491F511D660F771F881F991F0694E7
:10191000A1F70590079428F4E70EF81E491F561FFB
:10192000C11D770F881F991F661F0694A1F70590A8
:10193000079428F4F80E491F561FC71FD11D880FA2
:10194000991F661F771F0694A1F70590079420F44E
:10195000490F561FC71FD81F990F661F771F881F73
:101960000694A9F784911095177041F0D695C79504
:1019700057954795F794E7941A95C1F7E7E7F0E094
:1019800068941590159135916591959105907FE238
:101990007395E118F10A430B560BC90BD009C0F738
:1019A000E10CF11E431F561FC91FD01D7EF470337A
:1019B00011F48A95E6CFE894015030F0080F0AF44C
:1019C0000027021708F4202F2395022F7A3328F0DE
:1019D00079E37D932A95E9F710C07D932A9589F6DE
:1019E000069497956795379517951794E118F10A1E
:1019F000430B560BC90BD00998F023957E91739534
:101A00007A3308F070E37C932013B8F77E9170610D
:101A10007D9330F0839571E37D9370E32A95E1F730
:101A20001124EF90FF900F911F91CF91DF91992793
:101A300087FD90950895FC0105906150704001105C
:101A4000D8F7809590958E0F9F1F0895FC016150E7
:101A5000704001900110D8F7809590958E0F9F1FD0
:101A600008950F931F93CF93DF93182F092FEB0146
:101A70008B8181FD03C08FEF9FEF20C082FF10C0DC
:101A80004E815F812C813D81421753077CF4E881B0
:101A9000F9819F012F5F3F4F39832883108306C050
:101AA000E885F985812F0995892B29F72E813F81BA
:101AB0002F5F3F4F3F832E83812F902FDF91CF9158
:101AC0001F910F910895AEE0B0E0E9E6FDE00C94BF
:101AD000160C0D891E898F89988D26E02C831A8318
:101AE000098397FF02C080E090E801979E838D8371
:101AF000AE01455E5F4F698D7A8DCE0101960E94E1
:101B00007B064D815E8157FD0AC02F8138854217C3
:101B100053070CF49A01F801E20FF31F10822E967E
:101B2000E4E00C94320CFA01AA27283051F120315C
:101B300081F1E8946F936E7F6E5F7F4F8F4F9F4F61
:101B4000AF4FB1E03ED0B4E03CD0670F781F891FA3
:101B50009A1FA11D680F791F8A1F911DA11D6A0F71
:101B6000711D811D911DA11D20D009F468943F9124
:101B70002AE0269F11243019305D3193DEF6CF0123
:101B80000895462F4770405D4193B3E00FD0C9F7E9
:101B9000F6CF462F4F70405D4A3318F0495D31FD56
:101BA0004052419302D0A9F7EACFB4E0A6959795A9
:101BB000879577956795BA95C9F70097610571057F
:101BC00008959B01AC010A2E0694579547953795C9
:101BD0002795BA95C9F7620F731F841F951FA01D23
:101BE0000895A0E0B0E0E7EFFDE00C940A0C8B0153
:101BF0006115710521F0DB018C9311969C93EC012A
:101C00005E01BFEFAB1ABB0A7501C8808C2D90E056
:101C10000E94580F892B11F0E501F2CFEDE2CE12B0
:101C200008C07E01F2E0EF0EF11CC980DD24D394E0
:101C300009C02BE2C21205C07E0142E0E40EF11C95
:101C4000C980D12CE701219743E050E069E771E0BA
:101C5000CE010E94600F892BD1F4E701229645E066
:101C600050E064E771E0CE010E94600F892B11F40F
:101C7000E70127960115110519F0D801CD93DC93E2
:101C8000D11008C160E070E080E89FE70CC143E03C
:101C900050E061E771E0CE010E94600F892B59F49A
:101CA0000115110509F4FBC0B2E0EB0EF11CF801BF
:101CB000F182E082F4C0F70160E070E0CB01C0E0A7
:101CC000D0E07F01A0EDAA2EAC0C29E02A1530F15E
:101CD0004D2D4260B42E2D2D2870D2FE04C021114E
:101CE00025C0219623C021112197A5E0B0E09B01DA
:101CF000AC010E947B0F660F771F881F991F6A0D2A
:101D0000711D811D911D6839A9E97A078A07A9E12A
:101D10009A0760F0BD2DB660BB2E08C02EEFA21250
:101D20000AC0D3FC50C04D2D4860B42E3196D70167
:101D3000CC90DB2CC6CF2C2D2F7D253409F043C051
:101D4000A081AD3241F4BD2DB061DB2E7F0122E0D8
:101D5000E20EF11C0CC07F01AB3231F04FEFE41A00
:101D6000F40A21E030E006C0A2E0EA0EF11CA181F5
:101D700022E030E0A053AA3018F0E21AF30A23C0A0
:101D8000F70120E030E02038BCE03B075CF4A9011B
:101D9000440F551F440F551F240F351F220F331FAB
:101DA0002A0F311DAF014F5F5F4F7A01A081A05311
:101DB000AA3010F4FA01E7CFD4FE03C03195219583
:101DC0003109C20FD31FD1FE09C00115110531F031
:101DD000E1E0EE1AF108D801ED92FC920E94F30ABC
:101DE0002D2D2370233019F06B017C0106C06B018F
:101DF0007C01F7FAF094F7F8F09420E030E0A901C4
:101E0000C701B6010E945B0A882309F440C0D7FFCE
:101E100006C0D195C195D10900E911E002C008EAD8
:101E200011E04801B8E18B1A910890E2A92EB12C7B
:101E3000F8014590559065907490CA15DB055CF0EB
:101E4000A3019201C701B6010E94A50B6B017C01A1
:101E5000CA19DB09F2CF04501109B594A7940815EB
:101E6000190531F78E2D880F8F2D881F8F3F49F070
:101E700020E030E0A901C701B6010E945B0A811190
:101E800006C082E290E09093C3018093C201C70133
:101E9000B60109C060E070E080E89FEF04C060E038
:101EA00070E080EC9FE7CDB7DEB7E0E10C94260C44
:101EB00091111EC0803219F089508550D0F70895D5
:101EC000FB01DC014150504088F08D9181341CF0C1
:101ED0008B350CF4805E659161341CF06B350CF42D
:101EE000605E861B611171F3990B0895881BFCCF0E
:101EF0009927882708950E94860FA59F900DB49F6B
:101F0000900DA49F800D911D11240895A29FB001F2
:101F1000B39FC001A39F700D811D1124911DB29F1D
:0E1F2000700D811D1124911D0895F894FFCFBE
:101F2E0000409C4500007A44252E336600252E3253
:021F3E0066003B
:00000001FF
